:020000020000FC
:1000000000C00FE50DBF08E00EBF0FEF0ABB60E0B8
:100010006BBB0FEF07BB00EC08BB00EF04BB01D0CC
:10002000FECF6FE765BB59D09B9903C099EF98BB92
:1000300008959A9903C099E998BB0895999903C0C6
:1000400098EF98BB0895989903C09EE898BB0895CF
:100050006FEB65BB42D09B9903C094EA98BB0895AF
:100060009A9903C092E998BB0895999903C090E8C2
:1000700098BB0895989903C090EC98BB08956FEDD4
:1000800065BB2BD09B9903C090EB98BB08959A99C0
:1000900003C092E898BB0895999903C090E998BB72
:1000A0000895989903C096E898BB08956FEE65BBD4
:1000B00014D09B9903C098E898BB08959A9903C0FF
:1000C00093E898BB0895999903C096EC98BB08955E
:1000D0009899A7CF91EA98BB089570E18FEF8A9520
:0800E000F1F77A95D9F70895B4
:00000001FF
